:100000000C942A000C9447000C9447000C94470071
:100010000C9447000C9447000C9447000C94470044
:100020000C9447000C9447000C9447000C94470034
:100030000C9447000C9447000C9447000C94470024
:100040000C9447000C9447000C9447000C94470014
:100050000C94470011241FBECFE5D4E0DEBFCDBF16
:1000600010E0A0E6B0E0E6E0F1E002C005900D92FD
:10007000A036B107D9F710E0A0E6B0E001C01D92AC
:10008000A036B107E1F70E9449000C9481000C945E
:100090000000CF93DF9300D000D0CDB7DEB78FEF55
:1000A00084BB86E090E09A8389838BE590E09C8313
:1000B0008B8380E090E020E030E015C0FC01EE0F83
:1000C000FF1F41E050E04C0F5D1FE40FF51F408122
:1000D00045BB4FE35DE063E0415050406040E1F7D5
:1000E00000C0000001968230910544F36FE37DE08B
:1000F00083E0615070408040E1F700C00000C9011A
:06010000F2CFF894FFCFDE
:00000001FF
