:100000000C942A000C9447000C9447000C94470071
:100010000C9447000C9447000C9447000C94470044
:100020000C9447000C9447000C9447000C94470034
:100030000C9447000C9447000C9447000C94470024
:100040000C9447000C9447000C9447000C94470014
:100050000C94470011241FBECFE5D4E0DEBFCDBF16
:1000600010E0A0E6B0E0E2E8FEE002C005900D92EC
:10007000A038B107D9F710E0A0E8B0E001C01D92A8
:10008000A038B107E1F70E94A8020C943F070C9436
:10009000000081B3807F81BB81B3806F81BB8FEF14
:1000A00082BB08956F927F928F929F92AF92BF9280
:1000B000CF92DF92EF92FF920F931F93CF93DF9334
:1000C00000E610E0C0E0D0E0D80161E070E0EE248E
:1000D000FF246894E1F8E00EF11ECC24DD2468943E
:1000E000C2F8C00ED11E0F2EF6E0AF2EBB24F02DAD
:1000F000A00EB11E0F2EF8E68F2EF0E09F2EF02DF1
:100100006624772492B39B010C9002C0220F331F08
:100110000A94E2F7AB01F701008002C0440F551FBB
:100120000A94E2F7242B292BCB01F601008002C0B0
:10013000880F991F0A94E2F7822B9B01F50100803A
:1001400002C0220F331F0A94E2F7822B82BB22B334
:10015000F80180810E5F1F4FAB0102C0440F551F95
:100160008A95E2F7CA018095282322BBF401A301F6
:1001700080B32081329690E0022E02C0959587953B
:100180000A94E2F780FD50C0CB0102C0880F991F8E
:100190002A95E2F79C0180B390E082239323009795
:1001A000D1F3C130D105D1F0C230D1051CF4209774
:1001B00041F03AC0C230D105F1F0C330D105A1F50C
:1001C00027C041155105E9F141305105E1F14230B7
:1001D0005105D9F14330510539F539C04115510563
:1001E000C1F141305105B9F142305105B1F143300F
:1001F0005105D1F434C04115510599F141305105F3
:1002000091F14230510589F14330510569F42FC015
:100210004115510571F14130510569F142305105E7
:1002200061F14330510559F14F5F5F4F4430510543
:1002300009F09ECF2196C430D10509F063CF81E447
:100240001FC087E31DC084E31BC081E319C08FE397
:1002500017C088E315C085E313C082E311C080E3B3
:100260000FC089E30DC086E30BC083E309C08DE3B3
:1002700007C08FE205C08AE203C08DE201C08BE2B5
:10028000DF91CF911F910F91FF90EF90DF90CF9072
:10029000BF90AF909F908F907F906F900895C3987C
:1002A00083ED90E30197F1F700C00000C39A089531
:1002B0001ABAC29AC1980E944F018FEF8ABBC298A6
:1002C0000895CF93C82F0E945801CBBB88B3897F74
:1002D00088BB0E944F01CF910895CF93C82F0E94F1
:1002E0005801CBBBC19AC2980E944F01CF9108958B
:1002F00081E00E946101089587E893E10197F1F799
:1003000000C0000087B38E6087BB88B3817F88BB45
:100310008FEF8ABB85EA9EE00197F1F700C00000ED
:100320000E94780188E30E94610186E00E946101D9
:1003300080E80E9461018FE00E9461010895882396
:1003400039F4603168F4862F80580E946101089565
:10035000813031F4603120F4862F80540E94610195
:100360000895EF92FF920F931F93CF93DF93082F7F
:10037000192FC0E0D0E0EE24FF2417C021960E9480
:100380006D01C031D10529F481E060E00E949F0138
:100390000CC0CE0180978230910538F40E9478011C
:1003A00080E060E00E949F01E701F80181918F01E8
:1003B000882321F7DF91CF911F910F91FF90EF904C
:1003C00008950F931F93CF93DF93CDB7DEB7279791
:1003D0000FB6F894DEBF0FBECDBF00D000D000D066
:1003E000EDB7FEB731968E010F5F1F4FADB7BEB7A9
:1003F00012961C930E93119720E730E033832283EB
:10040000958384830E9468048DB79EB706960FB6C5
:10041000F8949EBF0FBE8DBFC8010E94B101279600
:100420000FB6F894DEBF0FBECDBFDF91CF911F9105
:100430000F9108958F929F92AF92BF92CF92DF92C9
:10044000EF92FF920F931F93CF93DF93CDB7DEB759
:1004500060970FB6F894DEBF0FBECDBF6B017C0175
:1004600020E030E0A9010E941E0388235CF4F7FA23
:10047000F094F7F8F0940F2EF3E78F2EF0E09F2E14
:10048000F02D06C00F2EF5E78F2EF0E09F2EF02DF9
:10049000C701B6010E942203DC01CB012DB73EB794
:1004A0002A5030400FB6F8943EBF0FBE2DBF0DB797
:1004B0001EB70F5F1F4F5E010894A11CB11CEDB762
:1004C000FEB7B282A18226E730E0F80133832283AF
:1004D00095828482978386839C01B901882777FD62
:1004E0008095982F0E9455039B01AC01C701B6016E
:1004F0000E94B90220E030E44CE156E40E94050479
:100500000E942203DC01CB01F801918780870E94C1
:1005100068042DB73EB7265F3F4F0FB6F8943EBF35
:100520000FBE2DBFC5010E94B10160960FB6F894B1
:10053000DEBF0FBECDBFDF91CF911F910F91FF9016
:10054000EF90DF90CF90BF90AF909F908F900895E5
:100550000E947C010E9449000E9452008F3319F0D2
:10056000813421F4F9CF0E947801F6CF0E946D0109
:10057000F3CF5058BB27AA270ED00DC1FED030F0C4
:1005800003D120F031F49F3F11F41EF4F3C00EF4B8
:10059000E095E7FBE9C0E92F0FD180F3BA176207B6
:1005A00073078407950718F071F49EF527C10EF4C0
:1005B000E0950B2EBA2FA02D0B01B90190010C0173
:1005C000CA01A0011124FF27591B99F0593F50F48B
:1005D000503E68F11A16F040A22F232F342F4427E3
:1005E000585FF3CF469537952795A795F0405395DB
:1005F000C9F77EF41F16BA0B620B730B840BBAF0AB
:100600009150A1F0FF0FBB1F661F771F881FC2F715
:100610000EC0BA0F621F731F841F48F48795779529
:100620006795B795F7959E3F08F0B3CF9395880FE0
:1006300008F09927EE0F97958795089571D008F4E3
:1006400081E0089504D06894B111D9C00895BCD058
:1006500088F09F5790F0B92F9927B751A0F0D1F0AB
:10066000660F771F881F991F1AF0BA95C9F712C035
:10067000B13081F0C3D0B1E00895C0C0672F782FAA
:100680008827B85F39F0B93FCCF3869577956795A1
:10069000B395D9F73EF490958095709561957F4F0D
:1006A0008F4F9F4F0895E89409C097FB3EF49095B3
:1006B0008095709561957F4F8F4F9F4F9923A9F03B
:1006C000F92F96E9BB279395F695879577956795CA
:1006D000B795F111F8CFFAF4BB0F11F460FF1BC00E
:1006E0006F5F7F4F8F4F9F4F16C0882311F096E9A1
:1006F00011C0772321F09EE8872F762F05C066234F
:1007000071F096E8862F70E060E02AF09A95660F07
:10071000771F881FDAF7880F9695879597F90895C0
:10072000990F0008550FAA0BE0E8FEEF1616170602
:10073000E807F907C0F012161306E407F50798F06A
:10074000621B730B840B950B39F40A2661F0232B83
:10075000242B252B21F408950A2609F4A140A695FF
:100760008FEF811D811D089597F99F6780E870E0E4
:1007700060E008959FEF80EC089500240A94161617
:10078000170618060906089500240A94121613067F
:10079000140605060895092E0394000C11F488230D
:1007A00052F0BB0F40F4BF2B11F460FF04C06F5F29
:1007B0007F4F8F4F9F4F089557FD9058440F551FFF
:1007C00059F05F3F71F04795880F97FB991F61F0D3
:1007D0009F3F79F087950895121613061406551F4A
:1007E000F2CF4695F1DF08C0161617061806991FB6
:1007F000F1CF86957105610508940895E894BB27AB
:1008000066277727CB0197F908950BD0C4CFB5DFC2
:1008100028F0BADF18F0952309F0A6CFABCF11244A
:10082000EECFCADFA0F3959FD1F3950F50E0551F8F
:10083000629FF001729FBB27F00DB11D639FAA2735
:10084000F00DB11DAA1F649F6627B00DA11D661F84
:10085000829F2227B00DA11D621F739FB00DA11DA5
:10086000621F839FA00D611D221F749F3327A00D5F
:10087000611D231F849F600D211D822F762F6A2FFB
:1008800011249F5750408AF0E1F088234AF0EE0F80
:10089000FF1FBB1F661F771F881F91505040A9F78D
:1008A0009E3F510570F060CFAACF5F3FECF3983EBA
:1008B000DCF3869577956795B795F795E7959F5FF4
:1008C000C1F7FE2B880F911D9695879597F908958E
:1008D000AEE0B0E0EEE6F4E00C9416070D891E8958
:1008E00086E08C831A8309838FEF9FE79E838D8335
:1008F000AE01475E5F4FCE0101966F89788D0E94F1
:100900008A04EF81F885E00FF11F10822E96E4E053
:100910000C943207ADE0B0E0E0E9F4E00C94080795
:100920003C017D876C875A01FC0117821682838106
:1009300081FFC8C12E010894411C511CF301938111
:10094000EC85FD8593FD859193FF8191FD87EC8773
:10095000882309F4B3C1853241F493FD859193FF57
:100960008191FD87EC87853229F490E0B3010E94E4
:100970007E06E4CFFF24EE2410E01032B0F48B3278
:1009800069F08C3228F4803251F0833271F40BC05C
:100990008D3239F0803349F411602CC0126014603C
:1009A00029C0186027C0106125C017FD2EC0282F50
:1009B00020532A3098F416FF08C08F2D880FF82E88
:1009C000FF0CFF0CF80EF20E15C08E2D880FE82ECE
:1009D000EE0CEE0CE80EE20E10620CC08E3221F42A
:1009E00016FD6CC1106406C08C3611F4106802C08C
:1009F000883659F4EC85FD8593FD859193FF8191AF
:100A0000FD87EC87882309F0B8CF982F9554933051
:100A100018F09052933038F424E030E0A20EB31E68
:100A20003FE339830FC0833631F0833781F083355C
:100A300009F05AC022C0F5018081898322E030E0AC
:100A4000A20EB31E21E0C22ED12C420114C092E0AE
:100A5000292E312C2A0C3B1CF5018080918016FF39
:100A600003C06F2D70E002C06FEF7FEFC4010E94E2
:100A700073066C0151011F7715C082E0282E312CBE
:100A80002A0C3B1CF5018080918016FF03C06F2D5E
:100A900070E002C06FEF7FEFC4010E9468066C0136
:100AA0001068510113FD1CC006C080E290E0B30144
:100AB0000E947E06EA948E2D90E0C816D906A8F30F
:100AC0000FC0F40117FD859117FF81914F0190E050
:100AD000B3010E947E06E110EA940894C108D1088F
:100AE000C114D10471F7E7C0843611F0893651F58D
:100AF000F50117FF07C080819181A281B38124E0B5
:100B000030E008C080819181AA2797FDA095BA2F77
:100B100022E030E0A20EB31E012F0F76B7FF08C00F
:100B2000B095A095909581959F4FAF4FBF4F0068AE
:100B3000BC01CD01A2012AE030E00E94AA06D82E15
:100B4000D4183FC0853721F41F7E2AE030E020C052
:100B5000197F8F36A9F0803720F4883509F0AEC0B0
:100B60000BC0803721F0883709F0A8C001C01061A0
:100B700014FF09C0146007C014FF08C0166006C047
:100B800028E030E005C020E130E002C020E132E0A2
:100B9000F50117FF07C0608171818281938144E074
:100BA00050E006C06081718180E090E042E050E05A
:100BB000A40EB51EA2010E94AA06D82ED418012F99
:100BC0000F7706FF09C00E7FDF1430F404FF06C064
:100BD00002FD04C00F7E02C01D2D01C01F2D802FFD
:100BE00090E004FF0CC0FE01ED0DF11D20812033CB
:100BF00011F4097E09C002FF06C01E5F05C0867899
:100C00009070009709F01F5F802E992403FD12C099
:100C100000FF0DC0FD2C1E1550F4FE0CF11A1E2D08
:100C200006C080E290E0B3010E947E061F5F1E15A1
:100C3000C0F304C01E1510F4E11A01C0EE2484FEB6
:100C40000FC080E390E0B3010E947E0682FE1FC0C9
:100C500081FE03C088E590E010C088E790E00DC0F9
:100C6000C40186789070009791F081FC02C080E208
:100C700001C08BE207FD8DE290E0B3010E947E0689
:100C800006C080E390E0B3010E947E06FA94DF1470
:100C9000C0F3DA94F201ED0DF11D808190E0B30113
:100CA0000E947E06DD20A9F706C080E290E0B30135
:100CB0000E947E06EA94EE20C1F740CEF3018681C1
:100CC000978102C08FEF9FEF2D96E2E10C942407ED
:100CD000FC010590615070400110D8F78095909507
:100CE0008E0F9F1F0895FC0161507040019001100C
:100CF000D8F7809590958E0F9F1F08950F931F939F
:100D0000CF93DF938C01EB018B8181FF1BC082FFAE
:100D10000DC02E813F818C819D812817390764F495
:100D2000E881F9810193F983E88306C0E885F985B4
:100D3000802F0995009731F48E819F8101969F83C2
:100D40008E8302C00FEF1FEFC801DF91CF911F917B
:100D50000F910895FA01AA27283051F1203181F12D
:100D6000E8946F936E7F6E5F7F4F8F4F9F4FAF4FB3
:100D7000B1E03ED0B4E03CD0670F781F891F9A1FC6
:100D8000A11D680F791F8A1F911DA11D6A0F711D7A
:100D9000811D911DA11D20D009F468943F912AE086
:100DA000269F11243019305D3193DEF6CF0108956E
:100DB000462F4770405D4193B3E00FD0C9F7F6CF9F
:100DC000462F4F70405D4A3318F0495D31FD405267
:100DD000419302D0A9F7EACFB4E0A69597958795FD
:100DE00077956795BA95C9F70097610571050895DC
:100DF0009B01AC010A2E0694579547953795279588
:100E0000BA95C9F7620F731F841F951FA01D08951F
:100E10002F923F924F925F926F927F928F929F920A
:100E2000AF92BF92CF92DF92EF92FF920F931F93F8
:100E3000CF93DF93CDB7DEB7CA1BDB0B0FB6F894A9
:100E4000DEBF0FBECDBF09942A88398848885F84E9
:100E50006E847D848C849B84AA84B984C884DF805A
:100E6000EE80FD800C811B81AA81B981CE0FD11D3E
:100E70000FB6F894DEBF0FBECDBFED010895F89414
:020E8000FFCFA2
:100E82000400050006000700000001000200030044
:100E92002564002D0000257325642E25303464005E
:00000001FF
