S01100006C63645F6B657061642E737265637C
S11300000C9448000C9465000C9465000C946500F5
S11300100C9465000C9465000C9465000C946500C8
S11300200C9465000C9465000C9465000C946500B8
S11300300C9465000C9465000C9465000C946500A8
S11300400C9465000C9465000C9465000C94650098
S11300500C946500494E46494E4954594E414E0050
S11300600020410000C84200401C4620BCBE4CCACF
S11300701B0E5AAEC59D74CDCCCC3D0AD7233C177C
S1130080B7D13877CC2B329595E6241FB14F0A00AF
S113009011241FBECFE5D4E0DEBFCDBF10E0A0E643
S11300A0B0E0E8EFF4E102C005900D92A038B1078A
S11300B0D9F710E0A0E8B0E001C01D92A238B10762
S11300C0E1F70E942E030C947A0A0C94000081B389
S11300D0807F81BB81B3806F81BB8FEF82BB08952A
S11300E06F927F928F929F92AF92BF92CF92DF9244
S11300F0EF92FF920F931F93CF93DF9300E610E0EC
S1130100C0E0D0E0D80161E070E0EE24FF24689400
S1130110E1F8E00EF11ECC24DD246894C2F8C00E90
S1130120D11E0F2EF6E0AF2EBB24F02DA00EB11E73
S11301300F2EF8E68F2EF0E09F2EF02D6624772404
S113014092B39B010C9002C0220F331F0A94E2F772
S1130150AB01F701008002C0440F551F0A94E2F777
S1130160242B292BCB01F601008002C0880F991F94
S11301700A94E2F7822B9B01F501008002C0220F52
S1130180331F0A94E2F7822B82BB22B3F8018081E9
S11301900E5F1F4FAB0102C0440F551F8A95E2F753
S11301A0CA018095282322BBF401A30180B32081D6
S11301B0329690E0022E02C0959587950A94E2F754
S11301C080FD50C0CB0102C0880F991F2A95E2F729
S11301D09C0180B390E0822393230097D1F3C13034
S11301E0D105D1F0C230D1051CF4209741F03AC0BA
S11301F0C230D105F1F0C330D105A1F527C04115B6
S11302005105E9F141305105E1F142305105D9F18F
S11302104330510539F539C041155105C1F141301B
S11302205105B9F142305105B1F143305105D1F4D2
S113023034C04115510599F14130510591F14230D5
S1130240510589F14330510569F42FC04115510519
S113025071F14130510569F14230510561F143308A
S1130260510559F14F5F5F4F4430510509F09ECF5E
S11302702196C430D10509F063CF81E41FC087E320
S11302801DC084E31BC081E319C08FE317C088E35A
S113029015C085E313C082E311C080E30FC089E376
S11302A00DC086E30BC083E309C08DE307C08FE272
S11302B005C08AE203C08DE201C08BE2DF91CF91D9
S11302C01F910F91FF90EF90DF90CF90BF90AF9070
S11302D09F908F907F906F900895C39883ED90E3E3
S11302E00197F1F700C00000C39A08951ABAC29AA0
S11302F0C1980E946D018FEF8ABBC2980895CF9375
S1130300C82F0E947601CBBB88B3897F88BB0E942B
S11303106D01CF910895CF93C82F0E947601CBBB76
S1130320C19AC2980E946D01CF91089581E00E9404
S11303307F01089587E893E10197F1F700C0000079
S113034087B38E6087BB88B3817F88BB8FEF8ABBFE
S113035085EA9EE00197F1F700C000000E94960133
S113036088E30E947F0186E00E947F0180E80E946A
S11303707F018FE00E947F010895882339F4603162
S113038068F4862F80580E947F010895813031F4EB
S1130390603120F4862F80540E947F010895EF92EB
S11303A0FF920F931F93CF93DF93082F192FC0E071
S11303B0D0E0EE24FF2417C021960E948B01C031A7
S11303C0D10529F481E060E00E94BD010CC0CE019A
S11303D080978230910538F40E94960180E060E0B5
S11303E00E94BD01E701F80181918F01882321F763
S11303F0DF91CF911F910F91FF90EF9008950F938C
S11304001F93CF93DF93CDB7DEB727970FB6F8943A
S1130410DEBF0FBECDBF00D000D000D0EDB7FEB719
S113042031968E010F5F1F4FADB7BEB712961C9366
S11304300E93119720E730E03383228395838483DE
S11304400E9416068DB79EB706960FB6F8949EBF07
S11304500FBE8DBFC8010E94CF0127960FB6F89436
S1130460DEBF0FBECDBFDF91CF911F910F910895D5
S11304708F929F92AF92BF92CF92DF92EF92FF92B0
S11304800F931F93CF93DF93CDB7DEB760970FB66B
S1130490F894DEBF0FBECDBF6B017C0120E030E0DD
S11304A0A9010E943A0488235CF4F7FAF094F7F85F
S11304B0F0940F2EF3E78F2EF0E09F2EF02D06C060
S11304C00F2EF5E78F2EF0E09F2EF02DC701B60119
S11304D00E94A604DC01CB012DB73EB72A50304060
S11304E00FB6F8943EBF0FBE2DBF0DB71EB70F5FFA
S11304F01F4F5E010894A11CB11CEDB7FEB7B28278
S1130500A18226E730E0F801338322839582848236
S1130510978386839C01B901882777FD8095982F5E
S11305200E94D9049B01AC01C701B6010E94D50306
S113053020E030E44CE156E40E9489050E94A604C0
S1130540DC01CB01F801918780870E9416062DB744
S11305503EB7265F3F4F0FB6F8943EBF0FBE2DBF88
S1130560C5010E94CF0160960FB6F894DEBF0FBE9E
S1130570CDBFDF91CF911F910F91FF90EF90DF904E
S1130580CF90BF90AF909F908F9008958F929F923D
S1130590AF92BF92CF92DF92EF92FF920F931F938D
S11305A0CF93DF937C016B01C42F82E060E00E9453
S11305B0BD01CB3261F4C7010E94F0058C01C60174
S11305C00E94F005800F911F0E94FF0124C0CD32CC
S11305D071F4C7010E94F005EC01C6010E94F00508
S11305E09E01281B390BC9010E94FF012AC0CA328F
S11305F091F4C7010E94F005EC01C6010E94F005C8
S11306009C01C29FC001C39F900DD29F900D1124E5
S11306100E94FF0116C0CF32A1F4C7010E94EC056D
S11306204B015C01C6010E94EC059B01AC01C501B4
S1130630B4010E943E040E94A604DC01CB010E9486
S1130640FF01DF91CF911F910F91FF90EF90DF9009
S1130650CF90BF90AF909F908F900895CF93DF93EA
S1130660CDB7DEB7A0970FB6F894DEBF0FBECDBFEF
S11306700E949A010E94670080E1FE013196DF0129
S1130680982F1D929A95E9F7FE017196DF011D924C
S11306908A95E9F7CC24DD242224332466247724A4
S11306A0AA24BB24A39401E04F01EE24FF24552483
S11306B00E947000182F8F3319F0813481F4F8CF21
S11306C00E949601FE013196D401C40111921D923B
S11306D0E817F907D9F7670117013701E9CF950141
S11306E08F3209F09701C5011A3209F0C701282B8E
S11306F0392B902F1B3209F0952D802F1D3209F0D4
S1130700852D892B90E0822B932B009761F0812F0C
S11307100E948B0189EF90E00197F1F700C000007F
S1130720412E6501C5CF1D3399F48DE30E948B01E1
S1130730A9EFB0E01197F1F700C00000CE010196D7
S1130740B401442D0E94C602670117013701B0CFDE
S1130750C114D104A1F4812F0E948B0189EF90E090
S11307600197F1F700C00000E1E0F0E0EC0FFD1F9D
S1130770E60DF71D10830894611C711C99CF91E05C
S1130780C916D10409F094CF812F0E948B01A9EFDF
S1130790B0E01197F1F700C00000F401E20DF31D81
S11307A010830894211C311C83CF5058BB27AA27DF
S11307B00ED075C166D130F06BD120F031F49F3F7B
S11307C011F41EF45BC10EF4E095E7FB51C1E92F6F
S11307D077D180F3BA17620773078407950718F077
S11307E071F49EF58FC10EF4E0950B2EBA2FA02D57
S11307F00B01B90190010C01CA01A0011124FF27CA
S1130800591B99F0593F50F4503E68F11A16F040C4
S1130810A22F232F342F4427585FF3CF46953795C3
S11308202795A795F0405395C9F77EF41F16BA0B88
S1130830620B730B840BBAF09150A1F0FF0FBB1F36
S1130840661F771F881FC2F70EC0BA0F621F731F7F
S1130850841F48F4879577956795B795F7959E3FDC
S113086008F0B3CF9395880F08F09927EE0F97956A
S113087087950895D9D008F481E008950CD00FC16C
S113088007D140F0FED030F021F45F3F19F0F0C002
S1130890511139C1F3C014D198F39923C9F35523E5
S11308A0B1F3951B550BBB27AA276217730784075F
S11308B038F09F5F5F4F220F331F441FAA1FA9F315
S11308C033D00E2E3AF0E0E830D091505040E69507
S11308D0001CCAF729D0FE2F27D0660F771F881F68
S11308E0BB1F261737074807AB07B0E809F0BB0B57
S11308F0802DBF01FF2793585F4F2AF09E3F51057B
S113090068F0B6C000C15F3FECF3983EDCF3869517
S113091077956795B795F7959F5FC9F7880F911DF0
S11309209695879597F90895E1E0660F771F881FDC
S1130930BB1F621773078407BA0720F0621B730B8F
S1130940840BBA0BEE1F88F7E095089504D06894E1
S1130950B111D9C00895BCD088F09F5790F0B92F39
S11309609927B751A0F0D1F0660F771F881F991F00
S11309701AF0BA95C9F712C0B13081F0C3D0B1E012
S11309800895C0C0672F782F8827B85F39F0B93F22
S1130990CCF3869577956795B395D9F73EF4909502
S11309A08095709561957F4F8F4F9F4F0895E89480
S11309B009C097FB3EF490958095709561957F4FA3
S11309C08F4F9F4F9923A9F0F92F96E9BB27939551
S11309D0F695879577956795B795F111F8CFFAF461
S11309E0BB0F11F460FF1BC06F5F7F4F8F4F9F4F92
S11309F016C0882311F096E911C0772321F09EE8F0
S1130A00872F762F05C0662371F096E8862F70E055
S1130A1060E02AF09A95660F771F881FDAF7880F2F
S1130A209695879597F90895990F0008550FAA0B85
S1130A30E0E8FEEF16161706E807F907C0F01216ED
S1130A401306E407F50798F0621B730B840B950BF0
S1130A5039F40A2661F0232B242B252B21F4089545
S1130A600A2609F4A140A6958FEF811D811D0895E2
S1130A7097F99F6780E870E060E008959FEF80EC4D
S1130A80089500240A9416161706180609060895F0
S1130A9000240A9412161306140605060895092E56
S1130AA00394000C11F4882352F0BB0F40F4BF2BC5
S1130AB011F460FF04C06F5F7F4F8F4F9F4F089505
S1130AC057FD9058440F551F59F05F3F71F04795FB
S1130AD0880F97FB991F61F09F3F79F087950895E0
S1130AE0121613061406551FF2CF4695F1DF08C0FF
S1130AF0161617061806991FF1CF8695710561051C
S1130B0008940895E894BB2766277727CB0197F9C3
S1130B1008950BD0C4CFB5DF28F0BADF18F09523C1
S1130B2009F0A6CFABCF1124EECFCADFA0F3959F77
S1130B30D1F3950F50E0551F629FF001729FBB27C0
S1130B40F00DB11D639FAA27F00DB11DAA1F649F6C
S1130B506627B00DA11D661F829F2227B00DA11D1F
S1130B60621F739FB00DA11D621F839FA00D611DA5
S1130B70221F749F3327A00D611D231F849F600DC6
S1130B80211D822F762F6A2F11249F5750408AF0FF
S1130B90E1F088234AF0EE0FFF1FBB1F661F771F8B
S1130BA0881F91505040A9F79E3F510570F060CFC7
S1130BB0AACF5F3FECF3983EDCF386957795679573
S1130BC0B795F795E7959F5FC1F7FE2B880F911DA9
S1130BD09695879597F90895662777270C941608B4
S1130BE0FC0188279927E89421912032E9F32930E0
S1130BF010F02E30C8F32B3241F02D3239F46894C2
S1130C0004C00E940E06820F911D219120532A30A8
S1130C10C0F31EF4909581959F4F08957AE0979FB5
S1130C20902D879F802D910D11240895AEE0B0E0A2
S1130C30ECE1F6E00C94510A0D891E8986E08C8360
S1130C401A8309838FEF9FE79E838D83AE01475EEE
S1130C505F4FCE0101966F89788D0E943806EF812F
S1130C60F885E00FF11F10822E96E4E00C946D0AD3
S1130C70ADE0B0E0EEE3F6E00C94430A3C017D877E
S1130C806C875A01FC0117821682838181FFC8C1D7
S1130C902E010894411C511CF3019381EC85FD85C0
S1130CA093FD859193FF8191FD87EC87882309F457
S1130CB0B3C1853241F493FD859193FF8191FD8702
S1130CC0EC87853229F490E0B3010E94B609E4CFA1
S1130CD0FF24EE2410E01032B0F48B3269F08C3231
S1130CE028F4803251F0833271F40BC08D3239F024
S1130CF0803349F411602CC01260146029C018605C
S1130D0027C0106125C017FD2EC0282F20532A307C
S1130D1098F416FF08C08F2D880FF82EFF0CFF0CD7
S1130D20F80EF20E15C08E2D880FE82EEE0CEE0C88
S1130D30E80EE20E10620CC08E3221F416FD6CC176
S1130D40106406C08C3611F4106802C0883659F459
S1130D50EC85FD8593FD859193FF8191FD87EC875B
S1130D60882309F0B8CF982F9554933018F09052F7
S1130D70933038F424E030E0A20EB31E3FE339830D
S1130D800FC0833631F0833781F0833509F05AC0C0
S1130D9022C0F5018081898322E030E0A20EB31ED7
S1130DA021E0C22ED12C420114C092E0292E312C14
S1130DB02A0C3B1CF5018080918016FF03C06F2D27
S1130DC070E002C06FEF7FEFC4010E94AB096C01B9
S1130DD051011F7715C082E0282E312C2A0C3B1CB0
S1130DE0F5018080918016FF03C06F2D70E002C072
S1130DF06FEF7FEFC4010E94A0096C0110685101DC
S1130E0013FD1CC006C080E290E0B3010E94B60945
S1130E10EA948E2D90E0C816D906A8F30FC0F40109
S1130E2017FD859117FF81914F0190E0B3010E9456
S1130E30B609E110EA940894C108D108C114D10498
S1130E4071F7E7C0843611F0893651F5F50117FFC3
S1130E5007C080819181A281B38124E030E008C081
S1130E6080819181AA2797FDA095BA2F22E030E0D6
S1130E70A20EB31E012F0F76B7FF08C0B095A09540
S1130E80909581959F4FAF4FBF4F0068BC01CD0136
S1130E90A2012AE030E00E94E209D82ED4183FC013
S1130EA0853721F41F7E2AE030E020C0197F8F3679
S1130EB0A9F0803720F4883509F0AEC00BC0803724
S1130EC021F0883709F0A8C001C0106114FF09C0DF
S1130ED0146007C014FF08C0166006C028E030E0A4
S1130EE005C020E130E002C020E132E0F50117FF47
S1130EF007C0608171818281938144E050E006C023
S1130F006081718180E090E042E050E0A40EB51E63
S1130F10A2010E94E209D82ED418012F0F7706FFF0
S1130F2009C00E7FDF1430F404FF06C002FD04C0C4
S1130F300F7E02C01D2D01C01F2D802F90E004FFE5
S1130F400CC0FE01ED0DF11D2081203311F4097E4A
S1130F5009C002FF06C01E5F05C086789070009726
S1130F6009F01F5F802E992403FD12C000FF0DC0FD
S1130F70FD2C1E1550F4FE0CF11A1E2D06C080E245
S1130F8090E0B3010E94B6091F5F1E15C0F304C0B0
S1130F901E1510F4E11A01C0EE2484FE0FC080E394
S1130FA090E0B3010E94B60982FE1FC081FE03C017
S1130FB088E590E010C088E790E00DC0C401867811
S1130FC09070009791F081FC02C080E201C08BE236
S1130FD007FD8DE290E0B3010E94B60906C080E3EC
S1130FE090E0B3010E94B609FA94DF14C0F3DA94D6
S1130FF0F201ED0DF11D808190E0B3010E94B6096C
S1131000DD20A9F706C080E290E0B3010E94B60992
S1131010EA94EE20C1F740CEF3018681978102C0A5
S11310208FEF9FEF2D96E2E10C945F0AA0E0B0E011
S1131030ECE1F8E00C94470A5B016115710521F0BD
S1131040DB018C9311969C937C01E7010894E11CCD
S1131050F11C08816701802F90E00E9480090097AD
S1131060A1F70D3241F4098142E0C42ED12CCC0EFB
S1131070DD1E11E009C00B3231F4098132E0C32EC8
S1131080D12CCC0EDD1E10E0E6012197CE0164E5E3
S113109070E043E050E00E9488090097D1F4E60133
S11310A02296CE0167E570E045E050E00E94880991
S11310B0009711F4E6012796A114B10419F0F50183
S11310C0D183C08330E020E090E8112309F40AC101
S11310D004C1CE016CE570E043E050E00E94880951
S11310E0009759F4A114B10409F4F9C0C601029699
S11310F0D50111969C938E93F2C040E050E0BA0162
S11311008824992400530A3090F51260212F30E08E
S1131110C9018870907012FF06C0009769F50894A1
S1131120811C911C29C0009719F00894810891082A
S1131130DB01CA01D2E0880F991FAA1FBB1FDA95F1
S1131140D1F7480F591F6A1F7B1F440F551F661F95
S1131150771F400F511D611D711D4839B9E95B07A7
S1131160B9E96B07B9E17B0738F0146005C00E3F9D
S113117039F413FD43C01860F60101916F01C2CF29
S1131180053311F00531D1F5D601EC91ED3211F4AE
S1131190106108C0EB3229F0C601019621E030E06D
S11311A008C0D6011196EC911197C601029622E06F
S11311B030E0E053EA3020F06C01C21AD30A1EC0BA
S11311C0DC0120E030E0FCE020383F075CF4C9019A
S11311D0880F991F880F991F280F391F220F331F5B
S11311E02E0F311DED91E0536D01EA3060F314FFD1
S11311F003C0309521953F4F820E931EC12FD0E03E
S113120011FF08C0A114B10429F0C6010197D5014A
S11312108D939C93CB01BA010E94D7046B017C018E
S1131220CE01837090708330910521F4F7FAF09425
S1131230F7F8F094C701B60120E030E0A9010E945C
S11312403A04882309F444C097FE07C0909481941B
S113125091089394CBE8D0E002C0C3E7D0E098EEC5
S1131260692E9FEF792E6C0E7D1E20E2A22EB12CEA
S11312700FC0FE010591159125913491C701B60166
S1131280A90198010E9489056B017C018A189B08B9
S11312908A149B0474F72497B594A794C615D705AC
S11312A0B9F7C601D7012A2F220F2B2F221F2F3F58
S11312B049F0BC01CD0120E030E0A9010E943A04CC
S11312C0882331F482E290E090938100809380003F
S11312D03C2D2D2D9E2D8F2D06C08FEF04C030E0A8
S11312E020E090EC8FE7B901AC01872F922FA52F56
S11312F0B42FBC01CD01CDB7DEB7EEE00C94630A88
S11313009111BEC0803219F089508550D0F70895EC
S1131310FB01DC014150504088F08D9181341CF078
S11313208B350CF4805E659161341CF06B350CF4E4
S1131330605E861B611171F3990B0895881BFCCFC5
S1131340FC010590615070400110D8F7809590958C
S11313508E0F9F1F0895FC01615070400190011091
S1131360D8F7809590958E0F9F1F08950F931F9324
S1131370CF93DF938C01EB018B8181FF1BC082FF34
S11313800DC02E813F818C819D812817390764F41B
S1131390E881F9810193F983E88306C0E885F9853A
S11313A0802F0995009731F48E819F8101969F8348
S11313B08E8302C00FEF1FEFC801DF91CF911F9101
S11313C00F910895FA01AA27283051F1203181F1B3
S11313D0E8946F936E7F6E5F7F4F8F4F9F4FAF4F39
S11313E0B1E03ED0B4E03CD0670F781F891F9A1F4C
S11313F0A11D680F791F8A1F911DA11D6A0F711D00
S1131400811D911DA11D20D009F468943F912AE00B
S1131410269F11243019305D3193DEF6CF010895F3
S1131420462F4770405D4193B3E00FD0C9F7F6CF24
S1131430462F4F70405D4A3318F0495D31FD4052EC
S1131440419302D0A9F7EACFB4E0A6959795879582
S113145077956795BA95C9F7009761057105089561
S11314609B01AC010A2E069457954795379527950D
S1131470BA95C9F7620F731F841F951FA01D0895A5
S11314809927882708952F923F924F925F926F92E7
S11314907F928F929F92AF92BF92CF92DF92EF9200
S11314A0FF920F931F93CF93DF93CDB7DEB7CA1B81
S11314B0DB0B0FB6F894DEBF0FBECDBF09942A88AC
S11314C0398848885F846E847D848C849B84AA8454
S11314D0B984C884DF80EE80FD800C811B81AA81E1
S11314E0B981CE0FD11D0FB6F894DEBF0FBECDBFAC
S10B14F0ED010895F894FFCF0B
S11314F804000500060007000000010002000300C4
S11315082564002D0000257325642E2530346400DD
S9030000FC
