S01B00006C6162325F756E6974375F6C657373736F6E312E73726563BB
S11300000C942A000C9447000C9447000C9447006D
S11300100C9447000C9447000C9447000C94470040
S11300200C9447000C9447000C9447000C94470030
S11300300C9447000C9447000C9447000C94470020
S11300400C9447000C9447000C9447000C94470010
S11300500C94470011241FBECFE5D8E0DEBFCDBF0E
S113006010E0A0E6B0E0E6E6F1E002C005900D92F3
S1130070A036B107D9F710E0A0E6B0E001C01D92A8
S1130080A036B107E1F70E945C000C94B1000C9417
S11300900000AC01181619064CF008950197F1F709
S11300A02F5F3F4F2417350729F4089520E030E0EF
S11300B066EF79E0CB01F2CF81B3806E81BB8C9A7D
S11300C0959A8FE39DE0A3E081509040A040E1F732
S11300D000C0000095988FE39DE0A3E0815090401C
S11300E0A040E1F700C00000969A8FE39DE0A3E0F2
S11300F081509040A040E1F700C0000096988FE343
S11301009DE0A3E081509040A040E1F700C00000D2
S1130110979A8FE39DE0A3E081509040A040E1F7DF
S113012000C0000097988FE39DE0A3E081509040C9
S1130130A040E1F700C00000949A8FE39DE0A3E0A3
S113014081509040A040E1F700C0000094988FE3F4
S11301509DE0A3E081509040A040E1F700C0000082
S1090160AFCFF894FFCFBD
S9030000FC
