S01E00004D554C5449504C4558494E475F37534547454D454E542E7372656376
S11300000C942A000C9447000C9447000C9447006D
S11300100C9447000C9447000C9447000C94470040
S11300200C9447000C9447000C9447000C94470030
S11300300C9447000C9447000C9447000C94470020
S11300400C9447000C9447000C9447000C94470010
S11300500C94470011241FBECFE5D4E0DEBFCDBF12
S113006010E0A0E6B0E0EEEDF0E002C005900D92E5
S1130070A036B107D9F710E0A0E6B0E001C01D92A8
S1130080A036B107E1F70E9449000C946D000C946E
S113009000008FEF87BB80E090E070E020E030E06C
S11300A018C0542F506158BBE3EDF0E33197F1F7DA
S11300B000C0000068BBE3EDF0E33197F1F700C046
S11300C000004F5F4A3069F701968A3091050CF0C1
S11100D0C901472F682F6062E4CFF894FFCF78
S9030000FC
