:100000000C942A000C9447000C9447000C94470071
:100010000C9447000C9447000C9447000C94470044
:100020000C9447000C9447000C9447000C94470034
:100030000C9447000C943D010C9447000C9447002D
:100040000C9447000C9447000C9447000C94470014
:100050000C94470011241FBECFE5D8E0DEBFCDBF12
:1000600010E0A0E6B0E0E8E0F6E002C005900D92F6
:10007000A636B107D9F720E0A6E6B0E001C01D9290
:10008000A937B207E1F70E94DA000C9402030C943E
:10009000000088B3877F88BB82E30E94E90088B3B1
:1000A000886088BB08951ABA88B3846088BB88B317
:1000B0008D7F88BB0E9449008FEF8ABB88B38B7FFE
:1000C00088BB0895CF93C82F0E945300CBBB88B341
:1000D000897F88BB0E944900CF910895CF93C82F94
:1000E0000E945300CBBB88B3826088BB88B38B7FF0
:1000F00088BB0E944900CF91089581E00E94620070
:10010000089584E10E94E90087B38E6087BB88B3BD
:10011000817F88BB8FEF8ABB8FE00E94E9000E943D
:100120007D0088E30E94620086E00E94620080E811
:100130000E9462008FE00E9462000895811107C052
:10014000603168F480E8860F0E9462000895813073
:1001500031F4603120F480EC860F0E946200089533
:100160000F931F93CF93DF938C01C0E0D0E019C0B1
:1001700021960F5F1F4F0E946E00C031D10529F4F8
:1001800060E081E00E949E000CC0CE018097029743
:1001900040F40E947D0060E080E00E949E00C0E08C
:1001A000D0E0F80180818111E3CFDF91CF911F91E1
:1001B0000F9108950E9481008FE00E94620081E407
:1001C0000E946E000E947D0080E690E00E94B000D8
:1001D000F3CFCF92DF92EF92FF92CF93682F70E030
:1001E00080E090E00E9476026B017C012FE632E114
:1001F00043E85EE30E94D30120E030E040E85FE3A3
:100200000E9467010E944502C62F2FE632E143E8B3
:100210005AE3C701B6010E94D3016B017C016C2F28
:1002200070E080E090E00E9476029B01AC01C70183
:10023000B6010E94D3019B01AC0160E070E080E850
:1002400093E40E9466010E94450262BF83B78A7FE1
:1002500083BF83B7826083BF90E007C008B600FE0B
:10026000FDCF88B7816088BF9F5F9C17B8F3CF919F
:10027000FF90EF90DF90CF9008951F920F920FB6EE
:100280000F9211242F933F934F935F936F937F931C
:100290008F939F93AF93BF93EF93FF93E09173007E
:1002A000F0917400309709F00995FF91EF91BF919B
:1002B000AF919F918F917F916F915F914F913F91FE
:1002C0002F910F900FBE0F901F9018955058BB277D
:1002D000AA270E947E010C94C8020E94BA0238F03C
:1002E0000E94C10220F039F49F3F19F426F40C94C7
:1002F000B7020EF4E095E7FB0C94B102E92F0E94DF
:10030000D90258F3BA17620773078407950720F0DC
:1003100079F4A6F50C94FB020EF4E0950B2EBA2F9F
:10032000A02D0B01B90190010C01CA01A0011124FB
:10033000FF27591B99F0593F50F4503E68F11A16A7
:10034000F040A22F232F342F4427585FF3CF469538
:1003500037952795A795F0405395C9F77EF41F165A
:10036000BA0B620B730B840BBAF09150A1F0FF0F24
:10037000BB1F661F771F881FC2F70EC0BA0F621F10
:10038000731F841F48F4879577956795B795F79500
:100390009E3F08F0B0CF9395880F08F09927EE0F95
:1003A0009795879508950E94E7010C94C8020E94D2
:1003B000C10258F00E94BA0240F029F45F3F29F0D0
:1003C0000C94B10251110C94FC020C94B7020E94DF
:1003D000D90268F39923B1F3552391F3951B550B7B
:1003E000BB27AA2762177307840738F09F5F5F4F08
:1003F000220F331F441FAA1FA9F335D00E2E3AF047
:10040000E0E832D091505040E695001CCAF72BD05E
:10041000FE2F29D0660F771F881FBB1F26173707AF
:100420004807AB07B0E809F0BB0B802DBF01FF27E1
:1004300093585F4F3AF09E3F510578F00C94B1020B
:100440000C94FC025F3FE4F3983ED4F386957795D5
:100450006795B795F7959F5FC9F7880F911D96959A
:10046000879597F90895E1E0660F771F881FBB1FF6
:10047000621773078407BA0720F0621B730B840BA3
:10048000BA0BEE1F88F7E09508950E94E10288F00C
:100490009F5798F0B92F9927B751B0F0E1F0660F48
:1004A000771F881F991F1AF0BA95C9F714C0B13089
:1004B00091F00E94FB02B1E008950C94FB02672FBB
:1004C000782F8827B85F39F0B93FCCF386957795B8
:1004D0006795B395D9F73EF49095809570956195A1
:1004E0007F4F8F4F9F4F0895E89409C097FB3EF4CC
:1004F00090958095709561957F4F8F4F9F4F992371
:10050000A9F0F92F96E9BB279395F69587957795EE
:100510006795B795F111F8CFFAF4BB0F11F460FFAE
:100520001BC06F5F7F4F8F4F9F4F16C0882311F006
:1005300096E911C0772321F09EE8872F762F05C01A
:10054000662371F096E8862F70E060E02AF09A95B5
:10055000660F771F881FDAF7880F9695879597F9AA
:10056000089597F99F6780E870E060E008959FEF35
:1005700080EC089500240A9416161706180609063A
:10058000089500240A941216130614060506089509
:10059000092E0394000C11F4882352F0BB0F40F491
:1005A000BF2B11F460FF04C06F5F7F4F8F4F9F4FD1
:1005B000089557FD9058440F551F59F05F3F71F053
:1005C0004795880F97FB991F61F09F3F79F08795BA
:1005D0000895121613061406551FF2CF4695F1DF43
:1005E00008C0161617061806991FF1CF86957105D3
:1005F000610508940895E894BB2766277727CB0107
:0806000097F90895F894FFCF6B
:0606080061686D656400ED
:00000001FF
